{
  "_format": "hh-sol-artifact-1",
  "contractName": "NFT",
  "sourceName": "contracts/NFT.sol",
  "abi": [
    {
      "inputs": [],
      "stateMutability": "nonpayable",
      "type": "constructor"
    },
    {
      "inputs": [],
      "name": "ApprovalCallerNotOwnerNorApproved",
      "type": "error"
    },
    {
      "inputs": [],
      "name": "ApprovalQueryForNonexistentToken",
      "type": "error"
    },
    {
      "inputs": [],
      "name": "BalanceQueryForZeroAddress",
      "type": "error"
    },
    {
      "inputs": [],
      "name": "MintERC2309QuantityExceedsLimit",
      "type": "error"
    },
    {
      "inputs": [],
      "name": "MintToZeroAddress",
      "type": "error"
    },
    {
      "inputs": [],
      "name": "MintZeroQuantity",
      "type": "error"
    },
    {
      "inputs": [],
      "name": "OwnerQueryForNonexistentToken",
      "type": "error"
    },
    {
      "inputs": [],
      "name": "OwnershipNotInitializedForExtraData",
      "type": "error"
    },
    {
      "inputs": [],
      "name": "TransferCallerNotOwnerNorApproved",
      "type": "error"
    },
    {
      "inputs": [],
      "name": "TransferFromIncorrectOwner",
      "type": "error"
    },
    {
      "inputs": [],
      "name": "TransferToNonERC721ReceiverImplementer",
      "type": "error"
    },
    {
      "inputs": [],
      "name": "TransferToZeroAddress",
      "type": "error"
    },
    {
      "inputs": [],
      "name": "URIQueryForNonexistentToken",
      "type": "error"
    },
    {
      "anonymous": false,
      "inputs": [
        {
          "indexed": true,
          "internalType": "address",
          "name": "owner",
          "type": "address"
        },
        {
          "indexed": true,
          "internalType": "address",
          "name": "approved",
          "type": "address"
        },
        {
          "indexed": true,
          "internalType": "uint256",
          "name": "tokenId",
          "type": "uint256"
        }
      ],
      "name": "Approval",
      "type": "event"
    },
    {
      "anonymous": false,
      "inputs": [
        {
          "indexed": true,
          "internalType": "address",
          "name": "owner",
          "type": "address"
        },
        {
          "indexed": true,
          "internalType": "address",
          "name": "operator",
          "type": "address"
        },
        {
          "indexed": false,
          "internalType": "bool",
          "name": "approved",
          "type": "bool"
        }
      ],
      "name": "ApprovalForAll",
      "type": "event"
    },
    {
      "anonymous": false,
      "inputs": [
        {
          "indexed": true,
          "internalType": "uint256",
          "name": "fromTokenId",
          "type": "uint256"
        },
        {
          "indexed": false,
          "internalType": "uint256",
          "name": "toTokenId",
          "type": "uint256"
        },
        {
          "indexed": true,
          "internalType": "address",
          "name": "from",
          "type": "address"
        },
        {
          "indexed": true,
          "internalType": "address",
          "name": "to",
          "type": "address"
        }
      ],
      "name": "ConsecutiveTransfer",
      "type": "event"
    },
    {
      "anonymous": false,
      "inputs": [
        {
          "indexed": true,
          "internalType": "address",
          "name": "from",
          "type": "address"
        },
        {
          "indexed": true,
          "internalType": "address",
          "name": "to",
          "type": "address"
        },
        {
          "indexed": true,
          "internalType": "uint256",
          "name": "tokenId",
          "type": "uint256"
        }
      ],
      "name": "Transfer",
      "type": "event"
    },
    {
      "inputs": [
        {
          "internalType": "address",
          "name": "to",
          "type": "address"
        },
        {
          "internalType": "uint256",
          "name": "tokenId",
          "type": "uint256"
        }
      ],
      "name": "approve",
      "outputs": [],
      "stateMutability": "payable",
      "type": "function"
    },
    {
      "inputs": [
        {
          "internalType": "address",
          "name": "owner",
          "type": "address"
        }
      ],
      "name": "balanceOf",
      "outputs": [
        {
          "internalType": "uint256",
          "name": "",
          "type": "uint256"
        }
      ],
      "stateMutability": "view",
      "type": "function"
    },
    {
      "inputs": [
        {
          "internalType": "uint256",
          "name": "tokenId",
          "type": "uint256"
        }
      ],
      "name": "getApproved",
      "outputs": [
        {
          "internalType": "address",
          "name": "",
          "type": "address"
        }
      ],
      "stateMutability": "view",
      "type": "function"
    },
    {
      "inputs": [
        {
          "internalType": "address",
          "name": "owner",
          "type": "address"
        },
        {
          "internalType": "address",
          "name": "operator",
          "type": "address"
        }
      ],
      "name": "isApprovedForAll",
      "outputs": [
        {
          "internalType": "bool",
          "name": "",
          "type": "bool"
        }
      ],
      "stateMutability": "view",
      "type": "function"
    },
    {
      "inputs": [],
      "name": "maxQuantity",
      "outputs": [
        {
          "internalType": "uint256",
          "name": "",
          "type": "uint256"
        }
      ],
      "stateMutability": "view",
      "type": "function"
    },
    {
      "inputs": [
        {
          "internalType": "uint256",
          "name": "quantity",
          "type": "uint256"
        }
      ],
      "name": "mint",
      "outputs": [],
      "stateMutability": "payable",
      "type": "function"
    },
    {
      "inputs": [],
      "name": "name",
      "outputs": [
        {
          "internalType": "string",
          "name": "",
          "type": "string"
        }
      ],
      "stateMutability": "view",
      "type": "function"
    },
    {
      "inputs": [
        {
          "internalType": "uint256",
          "name": "tokenId",
          "type": "uint256"
        }
      ],
      "name": "ownerOf",
      "outputs": [
        {
          "internalType": "address",
          "name": "",
          "type": "address"
        }
      ],
      "stateMutability": "view",
      "type": "function"
    },
    {
      "inputs": [],
      "name": "promptDescription",
      "outputs": [
        {
          "internalType": "string",
          "name": "",
          "type": "string"
        }
      ],
      "stateMutability": "pure",
      "type": "function"
    },
    {
      "inputs": [
        {
          "internalType": "address",
          "name": "from",
          "type": "address"
        },
        {
          "internalType": "address",
          "name": "to",
          "type": "address"
        },
        {
          "internalType": "uint256",
          "name": "tokenId",
          "type": "uint256"
        }
      ],
      "name": "safeTransferFrom",
      "outputs": [],
      "stateMutability": "payable",
      "type": "function"
    },
    {
      "inputs": [
        {
          "internalType": "address",
          "name": "from",
          "type": "address"
        },
        {
          "internalType": "address",
          "name": "to",
          "type": "address"
        },
        {
          "internalType": "uint256",
          "name": "tokenId",
          "type": "uint256"
        },
        {
          "internalType": "bytes",
          "name": "_data",
          "type": "bytes"
        }
      ],
      "name": "safeTransferFrom",
      "outputs": [],
      "stateMutability": "payable",
      "type": "function"
    },
    {
      "inputs": [
        {
          "internalType": "address",
          "name": "operator",
          "type": "address"
        },
        {
          "internalType": "bool",
          "name": "approved",
          "type": "bool"
        }
      ],
      "name": "setApprovalForAll",
      "outputs": [],
      "stateMutability": "nonpayable",
      "type": "function"
    },
    {
      "inputs": [
        {
          "internalType": "bytes4",
          "name": "interfaceId",
          "type": "bytes4"
        }
      ],
      "name": "supportsInterface",
      "outputs": [
        {
          "internalType": "bool",
          "name": "",
          "type": "bool"
        }
      ],
      "stateMutability": "view",
      "type": "function"
    },
    {
      "inputs": [],
      "name": "symbol",
      "outputs": [
        {
          "internalType": "string",
          "name": "",
          "type": "string"
        }
      ],
      "stateMutability": "view",
      "type": "function"
    },
    {
      "inputs": [
        {
          "internalType": "uint256",
          "name": "tokenId",
          "type": "uint256"
        }
      ],
      "name": "tokenURI",
      "outputs": [
        {
          "internalType": "string",
          "name": "",
          "type": "string"
        }
      ],
      "stateMutability": "view",
      "type": "function"
    },
    {
      "inputs": [],
      "name": "totalSupply",
      "outputs": [
        {
          "internalType": "uint256",
          "name": "",
          "type": "uint256"
        }
      ],
      "stateMutability": "view",
      "type": "function"
    },
    {
      "inputs": [
        {
          "internalType": "address",
          "name": "from",
          "type": "address"
        },
        {
          "internalType": "address",
          "name": "to",
          "type": "address"
        },
        {
          "internalType": "uint256",
          "name": "tokenId",
          "type": "uint256"
        }
      ],
      "name": "transferFrom",
      "outputs": [],
      "stateMutability": "payable",
      "type": "function"
    }
  ],
  "bytecode": "0x608060405260056008553480156200001657600080fd5b506040518060400160405280600381526020017f4e465400000000000000000000000000000000000000000000000000000000008152506040518060400160405280600381526020017f4e46540000000000000000000000000000000000000000000000000000000000815250816002908162000094919062000344565b508060039081620000a6919062000344565b50620000b7620000c560201b60201c565b60008190555050506200042b565b600090565b600081519050919050565b7f4e487b7100000000000000000000000000000000000000000000000000000000600052604160045260246000fd5b7f4e487b7100000000000000000000000000000000000000000000000000000000600052602260045260246000fd5b600060028204905060018216806200014c57607f821691505b60208210810362000162576200016162000104565b5b50919050565b60008190508160005260206000209050919050565b60006020601f8301049050919050565b600082821b905092915050565b600060088302620001cc7fffffffffffffffffffffffffffffffffffffffffffffffffffffffffffffffff826200018d565b620001d886836200018d565b95508019841693508086168417925050509392505050565b6000819050919050565b6000819050919050565b6000620002256200021f6200021984620001f0565b620001fa565b620001f0565b9050919050565b6000819050919050565b620002418362000204565b6200025962000250826200022c565b8484546200019a565b825550505050565b600090565b6200027062000261565b6200027d81848462000236565b505050565b5b81811015620002a5576200029960008262000266565b60018101905062000283565b5050565b601f821115620002f457620002be8162000168565b620002c9846200017d565b81016020851015620002d9578190505b620002f1620002e8856200017d565b83018262000282565b50505b505050565b600082821c905092915050565b60006200031960001984600802620002f9565b1980831691505092915050565b600062000334838362000306565b9150826002028217905092915050565b6200034f82620000ca565b67ffffffffffffffff8111156200036b576200036a620000d5565b5b62000377825462000133565b62000384828285620002a9565b600060209050601f831160018114620003bc5760008415620003a7578287015190505b620003b3858262000326565b86555062000423565b601f198416620003cc8662000168565b60005b82811015620003f657848901518255600182019150602085019450602081019050620003cf565b8683101562000416578489015162000412601f89168262000306565b8355505b6001600288020188555050505b505050505050565b611d39806200043b6000396000f3fe6080604052600436106100fe5760003560e01c806370a0823111610095578063a22cb46511610064578063a22cb46514610313578063b88d4fde1461033c578063c87b56dd14610358578063e640cf7d14610395578063e985e9c5146103c0576100fe565b806370a082311461026457806395363731146102a157806395d89b41146102cc578063a0712d68146102f7576100fe565b806318160ddd116100d157806318160ddd146101c457806323b872dd146101ef57806342842e0e1461020b5780636352211e14610227576100fe565b806301ffc9a71461010357806306fdde0314610140578063081812fc1461016b578063095ea7b3146101a8575b600080fd5b34801561010f57600080fd5b5061012a600480360381019061012591906114f2565b6103fd565b604051610137919061153a565b60405180910390f35b34801561014c57600080fd5b5061015561048f565b60405161016291906115e5565b60405180910390f35b34801561017757600080fd5b50610192600480360381019061018d919061163d565b610521565b60405161019f91906116ab565b60405180910390f35b6101c260048036038101906101bd91906116f2565b6105a0565b005b3480156101d057600080fd5b506101d96106e4565b6040516101e69190611741565b60405180910390f35b6102096004803603810190610204919061175c565b6106fb565b005b6102256004803603810190610220919061175c565b610a1d565b005b34801561023357600080fd5b5061024e6004803603810190610249919061163d565b610a3d565b60405161025b91906116ab565b60405180910390f35b34801561027057600080fd5b5061028b600480360381019061028691906117af565b610a4f565b6040516102989190611741565b60405180910390f35b3480156102ad57600080fd5b506102b6610b07565b6040516102c391906115e5565b60405180910390f35b3480156102d857600080fd5b506102e1610b44565b6040516102ee91906115e5565b60405180910390f35b610311600480360381019061030c919061163d565b610bd6565b005b34801561031f57600080fd5b5061033a60048036038101906103359190611808565b610c3a565b005b6103566004803603810190610351919061197d565b610d45565b005b34801561036457600080fd5b5061037f600480360381019061037a919061163d565b610db8565b60405161038c91906115e5565b60405180910390f35b3480156103a157600080fd5b506103aa610e56565b6040516103b79190611741565b60405180910390f35b3480156103cc57600080fd5b506103e760048036038101906103e29190611a00565b610e5c565b6040516103f4919061153a565b60405180910390f35b60006301ffc9a760e01b827bffffffffffffffffffffffffffffffffffffffffffffffffffffffff1916148061045857506380ac58cd60e01b827bffffffffffffffffffffffffffffffffffffffffffffffffffffffff1916145b806104885750635b5e139f60e01b827bffffffffffffffffffffffffffffffffffffffffffffffffffffffff1916145b9050919050565b60606002805461049e90611a6f565b80601f01602080910402602001604051908101604052809291908181526020018280546104ca90611a6f565b80156105175780601f106104ec57610100808354040283529160200191610517565b820191906000526020600020905b8154815290600101906020018083116104fa57829003601f168201915b5050505050905090565b600061052c82610ef0565b610562576040517fcf4700e400000000000000000000000000000000000000000000000000000000815260040160405180910390fd5b6006600083815260200190815260200160002060000160009054906101000a900473ffffffffffffffffffffffffffffffffffffffff169050919050565b60006105ab82610a3d565b90508073ffffffffffffffffffffffffffffffffffffffff166105cc610f4f565b73ffffffffffffffffffffffffffffffffffffffff161461062f576105f8816105f3610f4f565b610e5c565b61062e576040517fcfb3b94200000000000000000000000000000000000000000000000000000000815260040160405180910390fd5b5b826006600084815260200190815260200160002060000160006101000a81548173ffffffffffffffffffffffffffffffffffffffff021916908373ffffffffffffffffffffffffffffffffffffffff160217905550818373ffffffffffffffffffffffffffffffffffffffff168273ffffffffffffffffffffffffffffffffffffffff167f8c5be1e5ebec7d5bd14f71427d1e84f3dd0314c0f7b2291e5b200ac8c7c3b92560405160405180910390a4505050565b60006106ee610f57565b6001546000540303905090565b600061070682610f5c565b90508373ffffffffffffffffffffffffffffffffffffffff168173ffffffffffffffffffffffffffffffffffffffff161461076d576040517fa114810000000000000000000000000000000000000000000000000000000000815260040160405180910390fd5b60008061077984611028565b9150915061078f818761078a610f4f565b61104f565b6107db576107a48661079f610f4f565b610e5c565b6107da576040517f59c896be00000000000000000000000000000000000000000000000000000000815260040160405180910390fd5b5b600073ffffffffffffffffffffffffffffffffffffffff168573ffffffffffffffffffffffffffffffffffffffff1603610841576040517fea553b3400000000000000000000000000000000000000000000000000000000815260040160405180910390fd5b61084e8686866001611093565b801561085957600082555b600560008773ffffffffffffffffffffffffffffffffffffffff1673ffffffffffffffffffffffffffffffffffffffff168152602001908152602001600020600081546001900391905081905550600560008673ffffffffffffffffffffffffffffffffffffffff1673ffffffffffffffffffffffffffffffffffffffff168152602001908152602001600020600081546001019190508190555061092785610903888887611099565b7c0200000000000000000000000000000000000000000000000000000000176110c1565b600460008681526020019081526020016000208190555060007c02000000000000000000000000000000000000000000000000000000008416036109ad57600060018501905060006004600083815260200190815260200160002054036109ab5760005481146109aa578360046000838152602001908152602001600020819055505b5b505b838573ffffffffffffffffffffffffffffffffffffffff168773ffffffffffffffffffffffffffffffffffffffff167fddf252ad1be2c89b69c2b068fc378daa952ba7f163c4a11628f55a4df523b3ef60405160405180910390a4610a1586868660016110ec565b505050505050565b610a3883838360405180602001604052806000815250610d45565b505050565b6000610a4882610f5c565b9050919050565b60008073ffffffffffffffffffffffffffffffffffffffff168273ffffffffffffffffffffffffffffffffffffffff1603610ab6576040517f8f4eb60400000000000000000000000000000000000000000000000000000000815260040160405180910390fd5b67ffffffffffffffff600560008473ffffffffffffffffffffffffffffffffffffffff1673ffffffffffffffffffffffffffffffffffffffff16815260200190815260200160002054169050919050565b60606040518060400160405280601281526020017f496d616765206861732067656e72617465640000000000000000000000000000815250905090565b606060038054610b5390611a6f565b80601f0160208091040260200160405190810160405280929190818152602001828054610b7f90611a6f565b8015610bcc5780601f10610ba157610100808354040283529160200191610bcc565b820191906000526020600020905b815481529060010190602001808311610baf57829003601f168201915b5050505050905090565b60085481610be26106e4565b610bec9190611acf565b1115610c2d576040517f08c379a0000000000000000000000000000000000000000000000000000000008152600401610c2490611b4f565b60405180910390fd5b610c3733826110f2565b50565b8060076000610c47610f4f565b73ffffffffffffffffffffffffffffffffffffffff1673ffffffffffffffffffffffffffffffffffffffff16815260200190815260200160002060008473ffffffffffffffffffffffffffffffffffffffff1673ffffffffffffffffffffffffffffffffffffffff16815260200190815260200160002060006101000a81548160ff0219169083151502179055508173ffffffffffffffffffffffffffffffffffffffff16610cf4610f4f565b73ffffffffffffffffffffffffffffffffffffffff167f17307eab39ab6107e8899845ad3d59bd9653f200f220920489ca2b5937696c3183604051610d39919061153a565b60405180910390a35050565b610d508484846106fb565b60008373ffffffffffffffffffffffffffffffffffffffff163b14610db257610d7b848484846112ad565b610db1576040517fd1a57ed600000000000000000000000000000000000000000000000000000000815260040160405180910390fd5b5b50505050565b6060610dc382610ef0565b610df9576040517fa14c4b5000000000000000000000000000000000000000000000000000000000815260040160405180910390fd5b6000610e036113fd565b90506000815103610e235760405180602001604052806000815250610e4e565b80610e2d8461141d565b604051602001610e3e929190611bab565b6040516020818303038152906040525b915050919050565b60085481565b6000600760008473ffffffffffffffffffffffffffffffffffffffff1673ffffffffffffffffffffffffffffffffffffffff16815260200190815260200160002060008373ffffffffffffffffffffffffffffffffffffffff1673ffffffffffffffffffffffffffffffffffffffff16815260200190815260200160002060009054906101000a900460ff16905092915050565b600081610efb610f57565b11158015610f0a575060005482105b8015610f48575060007c0100000000000000000000000000000000000000000000000000000000600460008581526020019081526020016000205416145b9050919050565b600033905090565b600090565b60008082905080610f6b610f57565b11610ff157600054811015610ff05760006004600083815260200190815260200160002054905060007c0100000000000000000000000000000000000000000000000000000000821603610fee575b60008103610fe4576004600083600190039350838152602001908152602001600020549050610fba565b8092505050611023565b505b5b6040517fdf2d9b4200000000000000000000000000000000000000000000000000000000815260040160405180910390fd5b919050565b60008060006006600085815260200190815260200160002090508092508254915050915091565b600073ffffffffffffffffffffffffffffffffffffffff8316925073ffffffffffffffffffffffffffffffffffffffff821691508382148383141790509392505050565b50505050565b60008060e883901c905060e86110b086868461146d565b62ffffff16901b9150509392505050565b600073ffffffffffffffffffffffffffffffffffffffff83169250814260a01b178317905092915050565b50505050565b60008054905060008203611132576040517fb562e8dd00000000000000000000000000000000000000000000000000000000815260040160405180910390fd5b61113f6000848385611093565b600160406001901b178202600560008573ffffffffffffffffffffffffffffffffffffffff1673ffffffffffffffffffffffffffffffffffffffff168152602001908152602001600020600082825401925050819055506111b6836111a76000866000611099565b6111b085611476565b176110c1565b6004600083815260200190815260200160002081905550600080838301905073ffffffffffffffffffffffffffffffffffffffff85169150828260007fddf252ad1be2c89b69c2b068fc378daa952ba7f163c4a11628f55a4df523b3ef600080a4600183015b81811461125757808360007fddf252ad1be2c89b69c2b068fc378daa952ba7f163c4a11628f55a4df523b3ef600080a460018101905061121c565b5060008203611292576040517f2e07630000000000000000000000000000000000000000000000000000000000815260040160405180910390fd5b8060008190555050506112a860008483856110ec565b505050565b60008373ffffffffffffffffffffffffffffffffffffffff1663150b7a026112d3610f4f565b8786866040518563ffffffff1660e01b81526004016112f59493929190611c24565b6020604051808303816000875af192505050801561133157506040513d601f19601f8201168201806040525081019061132e9190611c85565b60015b6113aa573d8060008114611361576040519150601f19603f3d011682016040523d82523d6000602084013e611366565b606091505b5060008151036113a2576040517fd1a57ed600000000000000000000000000000000000000000000000000000000815260040160405180910390fd5b805181602001fd5b63150b7a0260e01b7bffffffffffffffffffffffffffffffffffffffffffffffffffffffff1916817bffffffffffffffffffffffffffffffffffffffffffffffffffffffff191614915050949350505050565b6060604051806080016040528060518152602001611cb360519139905090565b606060a060405101806040526020810391506000825281835b60011561145857600184039350600a81066030018453600a8104905080611436575b50828103602084039350808452505050919050565b60009392505050565b60006001821460e11b9050919050565b6000604051905090565b600080fd5b600080fd5b60007fffffffff0000000000000000000000000000000000000000000000000000000082169050919050565b6114cf8161149a565b81146114da57600080fd5b50565b6000813590506114ec816114c6565b92915050565b60006020828403121561150857611507611490565b5b6000611516848285016114dd565b91505092915050565b60008115159050919050565b6115348161151f565b82525050565b600060208201905061154f600083018461152b565b92915050565b600081519050919050565b600082825260208201905092915050565b60005b8381101561158f578082015181840152602081019050611574565b60008484015250505050565b6000601f19601f8301169050919050565b60006115b782611555565b6115c18185611560565b93506115d1818560208601611571565b6115da8161159b565b840191505092915050565b600060208201905081810360008301526115ff81846115ac565b905092915050565b6000819050919050565b61161a81611607565b811461162557600080fd5b50565b60008135905061163781611611565b92915050565b60006020828403121561165357611652611490565b5b600061166184828501611628565b91505092915050565b600073ffffffffffffffffffffffffffffffffffffffff82169050919050565b60006116958261166a565b9050919050565b6116a58161168a565b82525050565b60006020820190506116c0600083018461169c565b92915050565b6116cf8161168a565b81146116da57600080fd5b50565b6000813590506116ec816116c6565b92915050565b6000806040838503121561170957611708611490565b5b6000611717858286016116dd565b925050602061172885828601611628565b9150509250929050565b61173b81611607565b82525050565b60006020820190506117566000830184611732565b92915050565b60008060006060848603121561177557611774611490565b5b6000611783868287016116dd565b9350506020611794868287016116dd565b92505060406117a586828701611628565b9150509250925092565b6000602082840312156117c5576117c4611490565b5b60006117d3848285016116dd565b91505092915050565b6117e58161151f565b81146117f057600080fd5b50565b600081359050611802816117dc565b92915050565b6000806040838503121561181f5761181e611490565b5b600061182d858286016116dd565b925050602061183e858286016117f3565b9150509250929050565b600080fd5b600080fd5b7f4e487b7100000000000000000000000000000000000000000000000000000000600052604160045260246000fd5b61188a8261159b565b810181811067ffffffffffffffff821117156118a9576118a8611852565b5b80604052505050565b60006118bc611486565b90506118c88282611881565b919050565b600067ffffffffffffffff8211156118e8576118e7611852565b5b6118f18261159b565b9050602081019050919050565b82818337600083830152505050565b600061192061191b846118cd565b6118b2565b90508281526020810184848401111561193c5761193b61184d565b5b6119478482856118fe565b509392505050565b600082601f83011261196457611963611848565b5b813561197484826020860161190d565b91505092915050565b6000806000806080858703121561199757611996611490565b5b60006119a5878288016116dd565b94505060206119b6878288016116dd565b93505060406119c787828801611628565b925050606085013567ffffffffffffffff8111156119e8576119e7611495565b5b6119f48782880161194f565b91505092959194509250565b60008060408385031215611a1757611a16611490565b5b6000611a25858286016116dd565b9250506020611a36858286016116dd565b9150509250929050565b7f4e487b7100000000000000000000000000000000000000000000000000000000600052602260045260246000fd5b60006002820490506001821680611a8757607f821691505b602082108103611a9a57611a99611a40565b5b50919050565b7f4e487b7100000000000000000000000000000000000000000000000000000000600052601160045260246000fd5b6000611ada82611607565b9150611ae583611607565b9250828201905080821115611afd57611afc611aa0565b5b92915050565b7f596f752063616e206e6f74206d696e74206d6f7265207468616e203500000000600082015250565b6000611b39601c83611560565b9150611b4482611b03565b602082019050919050565b60006020820190508181036000830152611b6881611b2c565b9050919050565b600081905092915050565b6000611b8582611555565b611b8f8185611b6f565b9350611b9f818560208601611571565b80840191505092915050565b6000611bb78285611b7a565b9150611bc38284611b7a565b91508190509392505050565b600081519050919050565b600082825260208201905092915050565b6000611bf682611bcf565b611c008185611bda565b9350611c10818560208601611571565b611c198161159b565b840191505092915050565b6000608082019050611c39600083018761169c565b611c46602083018661169c565b611c536040830185611732565b8181036060830152611c658184611beb565b905095945050505050565b600081519050611c7f816114c6565b92915050565b600060208284031215611c9b57611c9a611490565b5b6000611ca984828501611c70565b9150509291505056fe68747470733a2f2f676174657761792e70696e6174612e636c6f75642f697066732f516d62463151446b433854546745434b367a6a6165636b76463843764836757170584d69535a746f3333395431462fa26469706673582212203c8b9bd0e684e450d0066a0394e568f5e11e1069d050bbaae554306b49ae3d3064736f6c63430008110033",
  "linkReferences": {},
  "deployedLinkReferences": {}
}